{
  "_format": "hh-sol-artifact-1",
  "contractName": "SpendBTCVault",
  "sourceName": "contracts/SpendBTCVault.sol",
  "abi": [
    {
      "inputs": [
        {
          "internalType": "address",
          "name": "musdAddress",
          "type": "address"
        },
        {
          "internalType": "address",
          "name": "oracleAddress",
          "type": "address"
        },
        {
          "internalType": "uint256",
          "name": "_collateralRatio",
          "type": "uint256"
        }
      ],
      "stateMutability": "nonpayable",
      "type": "constructor"
    },
    {
      "anonymous": false,
      "inputs": [
        {
          "indexed": true,
          "internalType": "address",
          "name": "previousOwner",
          "type": "address"
        },
        {
          "indexed": true,
          "internalType": "address",
          "name": "newOwner",
          "type": "address"
        }
      ],
      "name": "OwnershipTransferred",
      "type": "event"
    },
    {
      "inputs": [
        {
          "internalType": "uint256",
          "name": "amount",
          "type": "uint256"
        }
      ],
      "name": "borrowMUSD",
      "outputs": [],
      "stateMutability": "nonpayable",
      "type": "function"
    },
    {
      "inputs": [
        {
          "internalType": "address",
          "name": "",
          "type": "address"
        }
      ],
      "name": "collateralBTC",
      "outputs": [
        {
          "internalType": "uint256",
          "name": "",
          "type": "uint256"
        }
      ],
      "stateMutability": "view",
      "type": "function"
    },
    {
      "inputs": [],
      "name": "collateralRatio",
      "outputs": [
        {
          "internalType": "uint256",
          "name": "",
          "type": "uint256"
        }
      ],
      "stateMutability": "view",
      "type": "function"
    },
    {
      "inputs": [
        {
          "internalType": "address",
          "name": "",
          "type": "address"
        }
      ],
      "name": "debtMUSD",
      "outputs": [
        {
          "internalType": "uint256",
          "name": "",
          "type": "uint256"
        }
      ],
      "stateMutability": "view",
      "type": "function"
    },
    {
      "inputs": [],
      "name": "depositCollateral",
      "outputs": [],
      "stateMutability": "payable",
      "type": "function"
    },
    {
      "inputs": [],
      "name": "musd",
      "outputs": [
        {
          "internalType": "contract MUSD",
          "name": "",
          "type": "address"
        }
      ],
      "stateMutability": "view",
      "type": "function"
    },
    {
      "inputs": [],
      "name": "oracle",
      "outputs": [
        {
          "internalType": "contract MockBTCUSDOracle",
          "name": "",
          "type": "address"
        }
      ],
      "stateMutability": "view",
      "type": "function"
    },
    {
      "inputs": [],
      "name": "owner",
      "outputs": [
        {
          "internalType": "address",
          "name": "",
          "type": "address"
        }
      ],
      "stateMutability": "view",
      "type": "function"
    },
    {
      "inputs": [],
      "name": "renounceOwnership",
      "outputs": [],
      "stateMutability": "nonpayable",
      "type": "function"
    },
    {
      "inputs": [
        {
          "internalType": "uint256",
          "name": "amount",
          "type": "uint256"
        }
      ],
      "name": "repayMUSD",
      "outputs": [],
      "stateMutability": "nonpayable",
      "type": "function"
    },
    {
      "inputs": [
        {
          "internalType": "address",
          "name": "newOwner",
          "type": "address"
        }
      ],
      "name": "transferOwnership",
      "outputs": [],
      "stateMutability": "nonpayable",
      "type": "function"
    },
    {
      "inputs": [
        {
          "internalType": "uint256",
          "name": "amount",
          "type": "uint256"
        }
      ],
      "name": "withdrawCollateral",
      "outputs": [],
      "stateMutability": "nonpayable",
      "type": "function"
    }
  ],
  "bytecode": "0x60806040523480156200001157600080fd5b506040516200173d3803806200173d833981810160405281019062000037919062000264565b60016000819055506200005f62000053620000f160201b60201c565b620000f960201b60201c565b82600260006101000a81548173ffffffffffffffffffffffffffffffffffffffff021916908373ffffffffffffffffffffffffffffffffffffffff16021790555081600360006101000a81548173ffffffffffffffffffffffffffffffffffffffff021916908373ffffffffffffffffffffffffffffffffffffffff16021790555080600481905550505050620002c0565b600033905090565b6000600160009054906101000a900473ffffffffffffffffffffffffffffffffffffffff16905081600160006101000a81548173ffffffffffffffffffffffffffffffffffffffff021916908373ffffffffffffffffffffffffffffffffffffffff1602179055508173ffffffffffffffffffffffffffffffffffffffff168173ffffffffffffffffffffffffffffffffffffffff167f8be0079c531659141344cd1fd0a4f28419497f9722a3daafe3b4186f6b6457e060405160405180910390a35050565b600080fd5b600073ffffffffffffffffffffffffffffffffffffffff82169050919050565b6000620001f182620001c4565b9050919050565b6200020381620001e4565b81146200020f57600080fd5b50565b6000815190506200022381620001f8565b92915050565b6000819050919050565b6200023e8162000229565b81146200024a57600080fd5b50565b6000815190506200025e8162000233565b92915050565b60008060006060848603121562000280576200027f620001bf565b5b6000620002908682870162000212565b9350506020620002a38682870162000212565b9250506040620002b6868287016200024d565b9150509250925092565b61146d80620002d06000396000f3fe6080604052600436106100a75760003560e01c80637dc0d1d0116100645780637dc0d1d0146101855780637f32c4db146101b05780638da5cb5b146101ed578063b4eae1cb14610218578063cab666d014610243578063f2fde38b1461026e576100a7565b80630b8cb873146100ac578063211f0277146100e95780636112fe2e146101125780636f7581401461013b578063715018a61461014557806378f3ef221461015c575b600080fd5b3480156100b857600080fd5b506100d360048036038101906100ce9190610da8565b610297565b6040516100e09190610dee565b60405180910390f35b3480156100f557600080fd5b50610110600480360381019061010b9190610e35565b6102af565b005b34801561011e57600080fd5b5061013960048036038101906101349190610e35565b610542565b005b610143610850565b005b34801561015157600080fd5b5061015a6108fb565b005b34801561016857600080fd5b50610183600480360381019061017e9190610e35565b61090f565b005b34801561019157600080fd5b5061019a610a89565b6040516101a79190610ec1565b60405180910390f35b3480156101bc57600080fd5b506101d760048036038101906101d29190610da8565b610aaf565b6040516101e49190610dee565b60405180910390f35b3480156101f957600080fd5b50610202610ac7565b60405161020f9190610eeb565b60405180910390f35b34801561022457600080fd5b5061022d610af1565b60405161023a9190610dee565b60405180910390f35b34801561024f57600080fd5b50610258610af7565b6040516102659190610f27565b60405180910390f35b34801561027a57600080fd5b5061029560048036038101906102909190610da8565b610b1d565b005b60066020528060005260406000206000915090505481565b6102b7610ba0565b60006305f5e100600360009054906101000a900473ffffffffffffffffffffffffffffffffffffffff1673ffffffffffffffffffffffffffffffffffffffff166398d5fdca6040518163ffffffff1660e01b8152600401602060405180830381865afa15801561032b573d6000803e3d6000fd5b505050506040513d601f19601f8201168201806040525081019061034f9190610f57565b600560003373ffffffffffffffffffffffffffffffffffffffff1673ffffffffffffffffffffffffffffffffffffffff168152602001908152602001600020546103999190610fb3565b6103a39190611024565b905060006004546064836103b79190610fb3565b6103c19190611024565b90508083600660003373ffffffffffffffffffffffffffffffffffffffff1673ffffffffffffffffffffffffffffffffffffffff1681526020019081526020016000205461040f9190611055565b1115610450576040517f08c379a0000000000000000000000000000000000000000000000000000000008152600401610447906110e6565b60405180910390fd5b82600660003373ffffffffffffffffffffffffffffffffffffffff1673ffffffffffffffffffffffffffffffffffffffff168152602001908152602001600020600082825461049f9190611055565b92505081905550600260009054906101000a900473ffffffffffffffffffffffffffffffffffffffff1673ffffffffffffffffffffffffffffffffffffffff166340c10f1933856040518363ffffffff1660e01b8152600401610503929190611106565b600060405180830381600087803b15801561051d57600080fd5b505af1158015610531573d6000803e3d6000fd5b50505050505061053f610bef565b50565b61054a610ba0565b60006305f5e100600360009054906101000a900473ffffffffffffffffffffffffffffffffffffffff1673ffffffffffffffffffffffffffffffffffffffff166398d5fdca6040518163ffffffff1660e01b8152600401602060405180830381865afa1580156105be573d6000803e3d6000fd5b505050506040513d601f19601f820116820180604052508101906105e29190610f57565b600560003373ffffffffffffffffffffffffffffffffffffffff1673ffffffffffffffffffffffffffffffffffffffff1681526020019081526020016000205461062c9190610fb3565b6106369190611024565b9050600060045460648361064a9190610fb3565b6106549190611024565b90506305f5e100600360009054906101000a900473ffffffffffffffffffffffffffffffffffffffff1673ffffffffffffffffffffffffffffffffffffffff166398d5fdca6040518163ffffffff1660e01b8152600401602060405180830381865afa1580156106c8573d6000803e3d6000fd5b505050506040513d601f19601f820116820180604052508101906106ec9190610f57565b846106f79190610fb3565b6107019190611024565b8261070c919061112f565b6064600454600660003373ffffffffffffffffffffffffffffffffffffffff1673ffffffffffffffffffffffffffffffffffffffff1681526020019081526020016000205461075b9190610fb3565b6107659190611024565b11156107a6576040517f08c379a000000000000000000000000000000000000000000000000000000000815260040161079d906111d5565b60405180910390fd5b82600560003373ffffffffffffffffffffffffffffffffffffffff1673ffffffffffffffffffffffffffffffffffffffff16815260200190815260200160002060008282546107f5919061112f565b925050819055503373ffffffffffffffffffffffffffffffffffffffff166108fc849081150290604051600060405180830381858888f19350505050158015610842573d6000803e3d6000fd5b50505061084d610bef565b50565b610858610ba0565b6000341161089b576040517f08c379a000000000000000000000000000000000000000000000000000000000815260040161089290611241565b60405180910390fd5b34600560003373ffffffffffffffffffffffffffffffffffffffff1673ffffffffffffffffffffffffffffffffffffffff16815260200190815260200160002060008282546108ea9190611055565b925050819055506108f9610bef565b565b610903610bf9565b61090d6000610c77565b565b610917610ba0565b80600660003373ffffffffffffffffffffffffffffffffffffffff1673ffffffffffffffffffffffffffffffffffffffff168152602001908152602001600020541015610999576040517f08c379a0000000000000000000000000000000000000000000000000000000008152600401610990906112ad565b60405180910390fd5b80600660003373ffffffffffffffffffffffffffffffffffffffff1673ffffffffffffffffffffffffffffffffffffffff16815260200190815260200160002060008282546109e8919061112f565b92505081905550600260009054906101000a900473ffffffffffffffffffffffffffffffffffffffff1673ffffffffffffffffffffffffffffffffffffffff16639dc29fac33836040518363ffffffff1660e01b8152600401610a4c929190611106565b600060405180830381600087803b158015610a6657600080fd5b505af1158015610a7a573d6000803e3d6000fd5b50505050610a86610bef565b50565b600360009054906101000a900473ffffffffffffffffffffffffffffffffffffffff1681565b60056020528060005260406000206000915090505481565b6000600160009054906101000a900473ffffffffffffffffffffffffffffffffffffffff16905090565b60045481565b600260009054906101000a900473ffffffffffffffffffffffffffffffffffffffff1681565b610b25610bf9565b600073ffffffffffffffffffffffffffffffffffffffff168173ffffffffffffffffffffffffffffffffffffffff1603610b94576040517f08c379a0000000000000000000000000000000000000000000000000000000008152600401610b8b9061133f565b60405180910390fd5b610b9d81610c77565b50565b600260005403610be5576040517f08c379a0000000000000000000000000000000000000000000000000000000008152600401610bdc906113ab565b60405180910390fd5b6002600081905550565b6001600081905550565b610c01610d3d565b73ffffffffffffffffffffffffffffffffffffffff16610c1f610ac7565b73ffffffffffffffffffffffffffffffffffffffff1614610c75576040517f08c379a0000000000000000000000000000000000000000000000000000000008152600401610c6c90611417565b60405180910390fd5b565b6000600160009054906101000a900473ffffffffffffffffffffffffffffffffffffffff16905081600160006101000a81548173ffffffffffffffffffffffffffffffffffffffff021916908373ffffffffffffffffffffffffffffffffffffffff1602179055508173ffffffffffffffffffffffffffffffffffffffff168173ffffffffffffffffffffffffffffffffffffffff167f8be0079c531659141344cd1fd0a4f28419497f9722a3daafe3b4186f6b6457e060405160405180910390a35050565b600033905090565b600080fd5b600073ffffffffffffffffffffffffffffffffffffffff82169050919050565b6000610d7582610d4a565b9050919050565b610d8581610d6a565b8114610d9057600080fd5b50565b600081359050610da281610d7c565b92915050565b600060208284031215610dbe57610dbd610d45565b5b6000610dcc84828501610d93565b91505092915050565b6000819050919050565b610de881610dd5565b82525050565b6000602082019050610e036000830184610ddf565b92915050565b610e1281610dd5565b8114610e1d57600080fd5b50565b600081359050610e2f81610e09565b92915050565b600060208284031215610e4b57610e4a610d45565b5b6000610e5984828501610e20565b91505092915050565b6000819050919050565b6000610e87610e82610e7d84610d4a565b610e62565b610d4a565b9050919050565b6000610e9982610e6c565b9050919050565b6000610eab82610e8e565b9050919050565b610ebb81610ea0565b82525050565b6000602082019050610ed66000830184610eb2565b92915050565b610ee581610d6a565b82525050565b6000602082019050610f006000830184610edc565b92915050565b6000610f1182610e8e565b9050919050565b610f2181610f06565b82525050565b6000602082019050610f3c6000830184610f18565b92915050565b600081519050610f5181610e09565b92915050565b600060208284031215610f6d57610f6c610d45565b5b6000610f7b84828501610f42565b91505092915050565b7f4e487b7100000000000000000000000000000000000000000000000000000000600052601160045260246000fd5b6000610fbe82610dd5565b9150610fc983610dd5565b9250828202610fd781610dd5565b91508282048414831517610fee57610fed610f84565b5b5092915050565b7f4e487b7100000000000000000000000000000000000000000000000000000000600052601260045260246000fd5b600061102f82610dd5565b915061103a83610dd5565b92508261104a57611049610ff5565b5b828204905092915050565b600061106082610dd5565b915061106b83610dd5565b925082820190508082111561108357611082610f84565b5b92915050565b600082825260208201905092915050565b7f4578636565647320626f72726f77206c696d6974000000000000000000000000600082015250565b60006110d0601483611089565b91506110db8261109a565b602082019050919050565b600060208201905081810360008301526110ff816110c3565b9050919050565b600060408201905061111b6000830185610edc565b6111286020830184610ddf565b9392505050565b600061113a82610dd5565b915061114583610dd5565b925082820390508181111561115d5761115c610f84565b5b92915050565b7f43616e6e6f7420776974686472617720656e6f75676820636f6c6c617465726160008201527f6c00000000000000000000000000000000000000000000000000000000000000602082015250565b60006111bf602183611089565b91506111ca82611163565b604082019050919050565b600060208201905081810360008301526111ee816111b2565b9050919050565b7f4d757374206465706f7369742042544300000000000000000000000000000000600082015250565b600061122b601083611089565b9150611236826111f5565b602082019050919050565b6000602082019050818103600083015261125a8161121e565b9050919050565b7f5265706179206578636565647320646562740000000000000000000000000000600082015250565b6000611297601283611089565b91506112a282611261565b602082019050919050565b600060208201905081810360008301526112c68161128a565b9050919050565b7f4f776e61626c653a206e6577206f776e657220697320746865207a65726f206160008201527f6464726573730000000000000000000000000000000000000000000000000000602082015250565b6000611329602683611089565b9150611334826112cd565b604082019050919050565b600060208201905081810360008301526113588161131c565b9050919050565b7f5265656e7472616e637947756172643a207265656e7472616e742063616c6c00600082015250565b6000611395601f83611089565b91506113a08261135f565b602082019050919050565b600060208201905081810360008301526113c481611388565b9050919050565b7f4f776e61626c653a2063616c6c6572206973206e6f7420746865206f776e6572600082015250565b6000611401602083611089565b915061140c826113cb565b602082019050919050565b60006020820190508181036000830152611430816113f4565b905091905056fea26469706673582212200017657fe4275862d16aae893e5f4792ac96d7dfe26bdc64e2d0d20ce6c4df7564736f6c63430008140033",
  "linkReferences": {},
  "deployedLinkReferences": {}
}