{
  "_format": "hh-sol-artifact-1",
  "contractName": "MockOracle",
  "sourceName": "contracts/mocks/MockOracle.sol",
  "abi": [
    {
      "inputs": [],
      "name": "latestAnswer",
      "outputs": [
        {
          "internalType": "int256",
          "name": "",
          "type": "int256"
        }
      ],
      "stateMutability": "view",
      "type": "function"
    },
    {
      "inputs": [
        {
          "internalType": "int256",
          "name": "_price",
          "type": "int256"
        }
      ],
      "name": "setPrice",
      "outputs": [],
      "stateMutability": "nonpayable",
      "type": "function"
    }
  ],
  "bytecode": "0x6080604052650574fbde600060005534801561001a57600080fd5b506101508061002a6000396000f3fe608060405234801561001057600080fd5b50600436106100365760003560e01c806350d25bcd1461003b578063f7a3080614610059575b600080fd5b610043610075565b60405161005091906100a1565b60405180910390f35b610073600480360381019061006e91906100ed565b61007e565b005b60008054905090565b8060008190555050565b6000819050919050565b61009b81610088565b82525050565b60006020820190506100b66000830184610092565b92915050565b600080fd5b6100ca81610088565b81146100d557600080fd5b50565b6000813590506100e7816100c1565b92915050565b600060208284031215610103576101026100bc565b5b6000610111848285016100d8565b9150509291505056fea2646970667358221220f1a3d01b1b4e50239122ab8ab609082a1710687fbd46e024df29be7f9899b1fa64736f6c63430008140033",
  "linkReferences": {},
  "deployedLinkReferences": {}
}